{
  "config": {
    "chainId": 20182024,
    "berlinBlock": 0,
    "londonBlock": 0,
    "ibft2": {
      "blockperiodseconds": 5,
      "epochlength": 30000,
      "requesttimeoutseconds": 10
    }
  },
  "nonce": "0x0",
  "timestamp": "0x0",
  "gasLimit": "0x1fffffffffffff",
  "difficulty": "0x1",
  "mixHash": "0x63746963616c2062797a616e74696e65206661756c7420746f6c6572616e6365",
  "coinbase": "0x0000000000000000000000000000000000000000",
  "alloc": {
    "0xfe3b557e8fb62b89f4916b721be55ceb828dbd73": {
      "balance": "0xad78ebc5ac6200000",
      "comment": "Primary validator node account"
    },
    "0x8f2a55949038a9610f50fb23b5883af3b4ecb3c3": {
      "balance": "0xad78ebc5ac6200000",
      "comment": "Secondary validator node account"
    },
    "0xc8a60266e8c5b4d7a9c6f3b9e5a7b6c8d2e4f6a8": {
      "balance": "0xad78ebc5ac6200000",
      "comment": "Blockchain service account for smart contract interaction"
    }
  },
  "extraData": "0xf853a00000000000000000000000000000000000000000000000000000000000000000ea0000000000000000000000000000000000000000000000000000000000000000094fe3b557e8fb62b89f4916b721be55ceb828dbd73948f2a55949038a9610f50fb23b5883af3b4ecb3c394c8a60266e8c5b4d7a9c6f3b9e5a7b6c8d2e4f6a8b8410000000000000000000000000000000000000000000000000000000000000000000000000000000000000000000000000000000000000000000000000000000000"
}
